:020000040000FA
:06000000EDEF18F0120004
:0600080004EF08F01200F5
:060018000CEF08F01200DD
:06100000EDEF18F01200F4
:021006001200D6
:0610080049EF11F0120097
:0610180094EF11F012003C
:02101E000100CF
:0C102000F6310000F00500000B0000009D
:04102C00D9CFE6FF33
:10103000E1CFD9FFE652A394676A656A6A6A010E36
:10104000E66EE66AE66A6B0EE66E0F0EE66EACECD6
:1010500018F00B6E050EE15E0B50160E626E9F0EC1
:10106000666E7B0E646EDF6ADF500B6E0C6A080ED4
:101070000B5C000E0C5810E2DF50040DF3CFE9FFBB
:10108000F4CFEAFF000EE926040EEA22EE6AEE6AC9
:10109000EE6AEE6ADF2AE8D7608C636A6098609C2B
:1010A00065A607D065960001736B786B796B7A6BD8
:1010B000F7D70001010E8A6F8B6F8C6B8D6B806B85
:1010C000DF6A020EDF5C26E2EA6ADF34FE0BEA36F4
:1010D000E96E6B0EE926000EEA22EE6AED6AEA6A14
:1010E000DF34FE0BEA36E96E670EE926000EEA22CF
:1010F000EE6AED6ADF50EA6A840FE96E000EEA22BA
:10110000EF6ADF50EA6A860FE96E000EEA22EF6AA4
:10111000DF2AD7D70001080E6B6F040E6C6F160E16
:101120006A6E0401200E026F040E036F080E016F39
:10113000840E006F0001616B606BE552E552E7CFF2
:10114000D9FF1200D9CFE6FFE1CFD9FFE652000167
:10115000600507E160BA05D0656A64806488020EA4
:10116000606F6550040B06E06450040B03E0659467
:1011700088EC0EF060B259D06550010B09E0645064
:10118000010B06E053DFA3840001040E606F65903D
:101190006550100B06E06450100B03E073EC0EF08A
:1011A000659865AC19D064AC0FD0010EE66EE66AA6
:1011B000000EE66EE66A730EE66EE66AF7EC16F06F
:1011C0000B6E060EE15E0B50659C0001885101E03C
:1011D0008807885101E1FBD96550200B05E0645078
:1011E000200B02E05AEC0EF06550020B13E0645045
:1011F000020B10E0010EE66EE66A000EE66EE66A8D
:10120000E6687F0EE66EF7EC16F00B6E060EE15EFA
:101210000B50676A040E0001E76E6019E8AE02D059
:10122000E73402D0E750605D02E2A49439D064A6AE
:1012300036D0DF6A040EDF5C32E265A630D061CFC3
:1012400081F000018151780BE842E842E842826F68
:10125000659681B506D08251EA6A860FE96E000E66
:1012600005D08251EA6A840FE96E000EEA22EF701F
:10127000825103E19FEC0EF010D0000EE66EE66A9C
:10128000810EE66E000EE66E720EE66EE66AF7EC12
:1012900016F00B6E060EE15E0B50DF2ACBD7A4943E
:1012A000E552E552E7CFD9FF1200D9CFE6FFE1CFF3
:1012B000D9FF020EE126FD0EDBA407D0E66AFE0E82
:1012C000DBCFE6FF13DAE552E552FD0EDBA208D0D4
:1012D000010EE66EFE0EDBCFE6FF08DAE552E552C0
:1012E000FE0EDB500C6A6A0F0B6E0F0E0C220BC049
:1012F000DEFF0CC0DDFFDECFE9FFDDCFEAFFFD0E34
:10130000DBCFEFFF020EE15C02E2E16AE552E16E43
:10131000E552E7CFD9FF1200D9CFE6FFE1CFD9FFE1
:10132000020EE126FD0EDB500AE0FE0EEA6ADB3417
:10133000FE0BEA36E96E6B0EE926000E09D0FE0EB2
:10134000EA6ADB34FE0BEA36E96E670EE926000E28
:10135000EA22EECFDEFFEDCFDDFFD9CFE9FFDACF16
:10136000EAFFEE50ED1003E1F36AF46A44D0DECFF9
:10137000E9FFDDCFEAFF020EE926000EEA22FB0EAE
:10138000DBCFEEFFFC0EDBCFEDFFDECFE9FFDDCFE5
:10139000EAFFEE52FA0EDBCFEFFF400EDECFE9FFA1
:1013A000DDCFEAFFE850EF16880EDECFE9FFDDCF94
:1013B000EAFFE850EF12FD0EDB500AE0FE0EEA6A8B
:1013C000DB34FE0BEA36E96E6B0EE926000E09D01F
:1013D000FE0EEA6ADB34FE0BEA36E96E670EE9269A
:1013E000000EEA22EF74DECF0BF0DDCF0CF00BC065
:1013F000F3FF0CC0F4FF020EE15C02E2E16AE55289
:10140000E16EE552E7CFD9FF1200D9CFE6FFE1CF79
:10141000D9FF020EE126FE0EDB5020E165C0E9FF98
:1014200066C0EAFFEE52080EEF6E65C0E9FF66C0C7
:10143000EAFF020EE926000EEA22200EEE6E040EEE
:10144000ED6E65C0E9FF66C0EAFF8C0EEF6E6BC003
:10145000E9FF6CC0EAFF840EEF6E3BD0FD0EDB505F
:10146000E8240D6EFE0EDB50040DF3500D24040D28
:10147000F3CF0BF0F4CF0CF0000E0B26040E0C2271
:101480000BC0DEFF0CC0DDFF840EDECFE9FFDDCF39
:10149000EAFFE850EF12FD0EDB50E8240D6EFE0E61
:1014A000DB50040DF3500D24010F040DF3CF0BF0AE
:1014B000F4CF0CF0000E0B26040E0C220BC0DEFF46
:1014C0000CC0DDFF840EDECFE9FFDDCFEAFFE85080
:1014D000EF12020EE15C02E2E16AE552E16EE552D2
:1014E000E7CFD9FF1200D9CFE6FFE1CFD9FF60A83F
:1014F0004ED0FE0EEA6ADB34FE0BEA36E96E6B0E66
:10150000E926000EEA22EE50EFCFEAFFE96E400E28
:10151000EE16EE6AEE6AEE6AFE0EEA6ADB34FE0B47
:10152000EA36E96E6B0EE926000EEA22EE50EFCFA6
:10153000EAFFE96EEE7CFE0EEA6ADB34FE0BEA3669
:10154000E96E6B0EE926000EEA22EF74400E0B6E78
:10155000FE0EEA6ADB34FE0BEA36E96E6B0EE92614
:10156000000EEA22EE50EFCFEAFFE96E0B50EF16C5
:10157000FE0EEA6ADB34FE0BEA36E96E6B0EE926F4
:10158000000EEA22EE50EFCFEAFFE96EEF7CE55263
:10159000E7CFD9FF1200606A646A0001606B120035
:1015A0000001605113E1606A646A160E626E9F0E5C
:1015B000666E7B0E646ED08EA584A384F28E60B6B8
:1015C00002D06086FCD70001010E606F120000019E
:1015D0008A514DE1010E8A6F8B5149E1010E8B6FEB
:1015E000020E705D0DE16BC0E9FF6CC0EAFFEE52C8
:1015F000EF6A6BC0E9FF6CC0EAFFC80EEF6E120025
:10160000700535E1836B63C0E9FF64C0EAFFEE5209
:10161000080EEF6E63C0E9FF64C0EAFF020EE92620
:10162000000EEA22200EEE6E040EED6E63C0E9FF9E
:1016300064C0EAFF840EEF6E010E836F65C0E9FFA0
:1016400066C0EAFFEE52080EEF6E65C0E9FF66C0A5
:10165000EAFF020EE926000EEA22200EEE6E040ECC
:10166000ED6E65C0E9FF66C0EAFF800EEF6E120006
:1016700000018C6B8D6B020E705D18E165C0E9FF97
:1016800066C0EAFFEE52080EEF6E65C0E9FF66C065
:10169000EAFF020EE926000EEA22280EEE6E040E84
:1016A000ED6E65C0E9FF66C0EAFF1DD0745104010C
:1016B000265D000175510401275904E226C474F027
:1016C00027C475F0CAD86BC0E9FF6CC0EAFF020EF0
:1016D000E926000EEA22280EEE6E040EED6E6BC0B7
:1016E000E9FF6CC0EAFFC80EEF6E1200D9CFE6FF2B
:1016F000E1CFD9FF020EE126000EDE6E040EDD6E94
:10170000FD0EDB50E8240D6EFE0EDB50040DF35091
:101710000D24040DF4CF0CF0D9CFE9FFDACFEAFFA6
:10172000F350EE260C50ED22DECFE9FFDDCFEAFFCD
:10173000EF9EFD0EDB500AE1FE0EEA6ADB34FE0B83
:10174000EA36E96E670EE926000E09D0FE0EEA6A57
:10175000DB34FE0BEA36E96E6B0EE926000EEA2258
:10176000DECFEEFFDDCFEDFFDECFE9FFDDCFEAFF1D
:10177000EF9CDECFE9FFDDCFEAFF040EE926000E85
:10178000EA22EF8C020EE15C02E2E16AE552E16ED0
:10179000E552E7CFD9FF12006098000173BF2BD04C
:1017A00078AF09D0020E706F8D5101E161DF000149
:1017B0008B6B8A6B120065C0E9FF66C0EAFFEE52D0
:1017C000080EEF6E65C0E9FF66C0EAFF020EE9266B
:1017D000000EEA22200EEE6E040EED6E65C0E9FFEB
:1017E00066C0EAFF8C0EEF6E6BC0E9FF6CC0EAFFCB
:1017F000840EEF6E1200040120AF0DD00001010E27
:10180000706F8C5101E134DF00018B6B8A6B895161
:1018100023E1E7EF0AF00001020E706F65C0E9FFF7
:1018200066C0EAFFEE52080EEF6E65C0E9FF66C0C3
:10183000EAFF020EE926000EEA22200EEE6E040EEA
:10184000ED6E65C0E9FF66C0EAFF840EEF6E8B6B3C
:101850008A6B895101E1BBDE1200D9CFE6FFE1CFEF
:10186000D9FFE652080EDF6E0001745D000E755957
:101870000AE274C0DFFF6F5102E1010E03D06F0571
:1018800002E1020E6F6FDF500C6AE850745D746FF6
:101890000C507559756F6BC0E9FF6CC0EAFFEE52D2
:1018A000DFCFEFFF280E7D6F040E7E6F73B118D06F
:1018B000DF502DE071C0F6FF72C0F7FF712B000EF4
:1018C00072230800F550E66E7DC0E9FF7EC0EAFF96
:1018D0007D2B000E7E23E552E750EF6EDF06E8D742
:1018E000DF5015E071C0E9FF72C0EAFF712B000EF6
:1018F0007223EF50E66E7DC0E9FF7EC0EAFF7D2BCC
:10190000000E7E23E552E750EF6EDF06E9D7E55281
:10191000E552E7CFD9FF1200D9CFE6FFE1CFD9FFDB
:10192000020EE12663C0E9FF64C0EAFFEE52EFCF8A
:10193000DFFFDFCF0BF00B500001795D000E7A590D
:1019400002E279C0DFFFDF500B6E0C6AE850795D70
:10195000796F0C507A597A6F010EDB6ADF50F36EA3
:10196000010EDBCFF4FFF350F45C16E2010EDB5006
:10197000EA6A280FE96E040EEA22EF50E66E76C09E
:10198000E9FF77C0EAFF762B000E7723E552E75098
:10199000EF6E010EDB2AE2D7000ED8807955000EDB
:1019A0007A5527E265C0E9FF66C0EAFFEE52080EED
:1019B000EF6E65C0E9FF66C0EAFF020EE926000E81
:1019C000EA22280EEE6E040EED6E63C0E9FF64C0DD
:1019D000EAFFEF50400B06E165C0E9FF66C0EAFF91
:1019E000C80E05D065C0E9FF66C0EAFF880EEF6E3D
:1019F00028D065C0E9FF66C0EAFFEE52080EEF6E20
:101A000065C0E9FF66C0EAFF020EE926000EEA2281
:101A1000200EEE6E040EED6E65C0E9FF66C0EAFFB3
:101A2000840EEF6E7B517C1107E005D07CC0FAFF7D
:101A300000017B51F96EFADF0001789F895101E1C5
:101A4000C6DD020EE15C02E2E16AE552E16EE552BA
:101A5000E7CFD9FF1200D9CFE6FFE1CFD9FFE65299
:101A60000001738F010EE66EE66AE66A6B0EE66EA3
:101A70000F0EE66EACEC18F00B6E050EE15E0B502F
:101A8000200EE66EE66AE66A000EE66E040EE66E6C
:101A9000ACEC18F00B6E050EE15E0B50608CDF6A4B
:101AA000020EDF5C10E2DF50EA6A840FE96E000E7E
:101AB000EA22EF6ADF50EA6A860FE96E000EEA2238
:101AC000EF6ADF2AEDD7010EE66EE66AE66A620E7D
:101AD000E66E000EE66EACEC18F00B6E050EE15EE5
:101AE0000B50609C0001080E6B6F040E6C6F000EB3
:101AF000636F040E646F63C065F0666F22C461F0AB
:101B0000615102E1100E12D0010EE66EE66A610E1E
:101B1000E66E000EE66E010EE66EE66AF7EC16F073
:101B20000B6E060EE15E0B500001200E606FE55259
:101B3000E552E7CFD9FF1200800E0401205D58E185
:101B40000001C00E736F04012351030A2FE0010A44
:101B500009E0030A4BE10001820E716F2E0E726FD5
:101B6000120E3ED02251F66EF76AD890F636F7364E
:101B70003F0EF6262F0EF7220900F5CF71F00A006E
:101B8000F5CF72F0020E0001F76A7125F66E725100
:101B9000F7220800F5CF74F0030EF76A7125F66E90
:101BA0007251F7220800F5CF75F01200030E225D86
:101BB0001AE22251F66EF76AD890F636F736410EE1
:101BC000F6262F0EF7220900F5CF71F00A00F5CFA7
:101BD00072F071C0F6FF72C0F7FF0800F550000107
:101BE000746F756B12000001736B12000001736B50
:101BF0001200D9CFE6FFE1CFD9FF020EE1260401A2
:101C0000286B296B20511F0B020A11E0030A0CE01C
:101C1000010A3CE10001738F0401288100017F0566
:101C200035E10401288332D00001738F2FD00001E9
:101C3000738F040124BF0BD024510F0BE96EEA6AA5
:101C4000D890E936EA36670EE926000E0AD024510C
:101C50000F0BE96EEA6AD890E936EA366B0EE92690
:101C6000000EEA22EECFDEFFEDCFDDFFDECFE9FF93
:101C7000DDCFEAFFEF50800B09E0DECFE9FFDDCFDB
:101C8000EAFFEF50040B02E0010E286F000173AF72
:101C900007D0280E716F040E726F7381020E746F7D
:101CA000020EE15C02E2E16AE552E16EE552E7CF45
:101CB000D9FF12006AA015D063C0E9FF64C0EAFF33
:101CC000EF5080080DE16BC0E9FF6CC0EAFFEF50F8
:101CD000840806E163C0E9FF64C0EAFF8C0EEF6E82
:101CE0006A90659A12006484659860820001010E12
:101CF000806F000EE66EE66AE66EE66A750EE66EC8
:101D0000E66AF7EC16F00B6E060EE15E0B50120061
:101D10000001806B000EE66EE66AE66EE66A740EFF
:101D2000E66EE66AF7EC16F00B6E060EE15E0B50FF
:101D30006092649465A402D06594FCD71200D9CF58
:101D4000E6FFE1CFD9FFE65200012D0E886FFD0EB0
:101D5000811553E17E0E8115E8407F0B040DF3CF12
:101D600063F0F4CF64F0000E6327040E642363C0B5
:101D700065F064C066F0657563C0E9FF64C0EAFFA2
:101D8000EF503C0BE842E8420D0835E1DF6A080EEF
:101D9000DF5C23E263C0E9FF64C0EAFF020EE926CC
:101DA000000EEA22EE50EFCFEAFFE96EEF50E66E4A
:101DB000DF50EA6A200FE96E040EEA22E552E7508E
:101DC000EF6E63C0E9FF64C0EAFF020EE926000E71
:101DD000EA22EE2AEF22DF2ADAD763C0E9FF64C0E5
:101DE000EAFF020EE926000EEA22200EEE6E040E35
:101DF000ED6E0DD807D03AD805D0FD0E8115040838
:101E000001E159D8E552E552E7CFD9FF12000001B0
:101E10006F6B896B8C6B8D6B836B706B6BC0E9FF29
:101E20006CC0EAFFEF9E6B756BC0E9FF6CC0EAFF08
:101E3000EF9E6B7565C0E9FF66C0EAFFEF9E736BAE
:101E4000746B756B786B796B7A6B8CD8000EE66E61
:101E5000E66AE66EE66A030EE66EE66AF7EC16F0F0
:101E60000B6E060EE15E0B50CCEF0BF0020E000184
:101E7000705D02E18CEF0CF0706B83511AE165C06C
:101E8000E9FF66C0EAFFEE52080EEF6E65C0E9FF9B
:101E900066C0EAFF020EE926000EEA22200EEE6E70
:101EA000040EED6E65C0E9FF66C0EAFF8C0EEF6EB2
:101EB0001200836B1200D9CFE6FFE1CFD9FFE652C3
:101EC0006BC0E9FF6CC0EAFFEF50400B01E0010E70
:101ED000DF6E00016B75080E605D08E122C463FFD0
:101EE000635002E0100E01D0040E606F700526E111
:101EF0006BC0E9FF6CC0EAFF020EE926000EEA2281
:101F0000280EEE6E040EED6EA8DC020E00016F5D71
:101F100006E16BC0E9FF6CC0EAFF840E0DD0DF5014
:101F200006E16BC0E9FF6CC0EAFFC80E05D06BC0CC
:101F3000E9FF6CC0EAFF880EEF6E0FD078AF0CD0CF
:101F40007B517C1107E005D07CC0FAFF00017B517A
:101F5000F96EFADF0001789F706BE552E552E7CF2A
:101F6000D9FF120004012051600BE842E842E84228
:101F7000E842E842000901E0120021510C0A50E059
:101F80000B0A3FE00C0A31E0010A22E00B0A1EE0D6
:101F9000020A1CE0030A18E0080A10E0010A0CE03B
:101FA0000F0A08E0030A01E012000001738F080E17
:101FB000606F12009CEF0DF02BEF0DF00001610E31
:101FC000716F000E726F0CD0F9EF0DF011EF10F081
:101FD00024510001716F726B620E7127000E722323
:101FE0007381010E746F738F12000001738F0401EF
:101FF0002451EA6A620FE96E000EEA2222C4EFFF62
:102000001200000EE66EE66AE66EE66A020EE66E04
:10201000E66AF7EC16F00B6E060EE15E0B5012004E
:102020001200D9CFE6FFE1CFD9FF050EE12604016A
:10203000220510E120511F0B00090CE10001738FF4
:10204000030E0401215D04E10001010E7F6F02D047
:1020500000017F6B0401225101E011D120511F0BBF
:10206000020801E00CD124510F0B000901E107D156
:1020700024510F0B010801E202D1200E0001605D26
:1020800001E0FDD0738F040124BF16D024510F0B43
:10209000E96EEA6AD890E936EA36670EE926000E5C
:1020A000EA22EECFDEFFEDCFDDFF24510F0BEA6A0F
:1020B000860FE96E000E15D024510F0BE96EEA6A07
:1020C000D890E936EA366B0EE926000EEA22EECF0A
:1020D000DEFFEDCFDDFF24510F0BEA6A840FE96EBE
:1020E000000EEA22020EEFCFDBFFD950020FE96E9D
:1020F000DACFEAFFEF50010B03E1000EDF9401D0CD
:10210000DF8424BF0BD024510F0BE96EEA6AD8900C
:10211000E936EA36670EE926000E0AD024510F0B85
:10212000E96EEA6AD890E936EA366B0EE926000EC7
:10213000EA22DECFEEFFDDCFEDFF030E215D20E1D1
:10214000DECFE9FFDDCFEAFFEF50800B11E024BFC7
:1021500007D024510F0BEA6A860FE96E000E06D0F5
:1021600024510F0BEA6A840FE96E000EEA22EF8217
:10217000840EDECFE9FFDDCFEAFFE850EF127FD01B
:10218000DF74DECFE9FFDDCFEAFFEF50800B1BE00D
:10219000DECFE9FFDDCFEAFFEF9EDECFE9FFDDCF47
:1021A000EAFFEF8C020EE66EE66ADECFE6FFDDCFD9
:1021B000E6FF050EE66EE66AF7EC16F00B6E060E0D
:1021C000E15E0B5005D0DECFE9FFDDCFEAFFEF8CFB
:1021D000DF74D950020FE96EDACFEAFFEF50020B3D
:1021E00007E1DECFE9FFDDCFEAFFEF50800B2BE008
:1021F000040124BF07D024510F0BEA6A860FE96E51
:10220000000E06D024510F0BEA6A840FE96E000E0F
:10221000EA22EF923B0E0B6EDECFE9FFDDCFEAFF45
:10222000E850EF16020EE66EE66ADECFE6FFDDCF7F
:10223000E6FF050EE66EE66AF7EC16F00B6E060E8C
:10224000E15E0B5007D03B0EDECFE9FFDDCFEAFFAA
:10225000E850EF16040124510F0B0C6A6A0F0B6E45
:102260000F0E0C22030E0BC0DBFF040E0CC0DBFFB5
:10227000030EDBCFE9FF040EDBCFEAFFEF90050E84
:10228000E15C02E2E16AE552E16EE552E7CFD9FF97
:0222900012003A
:0E229200DACFE4FFE2CFDAFFE9CFE4FFEACFD4
:1022A000E4FFF6CFE4FFF7CFE4FFF5CFE4FFF3CF91
:1022B000E4FFF4CFE4FFFACFE4FF00EE00F00B0EF2
:1022C000E80403E3EECFE4FFFBD700EE0BF0030ED0
:1022D000E80403E3EECFE4FFFBD7E652A2EC08F0FC
:1022E000E55200EE0DF0030EE80403E3E5CFEDFF49
:1022F000FBD700EE0AF00B0EE80403E3E5CFEDFF99
:10230000FBD7E5CFFAFFE5CFF4FFE5CFF3FFE5CF4D
:10231000F5FFE5CFF7FFE5CFF6FFE5CFEAFFE5CF25
:10232000E9FFE5CFDAFF1100D8CFE4FFE0CFE4FF0B
:10233000E46EDACFE4FFE652E552E5CFDAFFE5508E
:10234000E5CFE0FFE5CFD8FF10000F015D95948445
:10235000C70EBB6E0C0EBD6E640EBE6E060EBA12BC
:10236000949412009586949483B603D0040E8B6ED9
:1023700012008B941200D9CFE6FFE1CFD9FF020EF5
:10238000E126FE0EDB500C6A000F0B6E0F0E0C22C6
:102390000BC0DEFF0CC0DDFFFD0EDB5007E0DECF23
:1023A000E9FFDDCFEAFFFC0EDBCFEFFFDECFE9FF79
:1023B000DDCFEAFFEF500B6E020EE15C02E2E16A54
:1023C000E552E16E0B50E552E7CFD9FF1200D9CFAD
:1023D000E6FFE1CFD9FF020EE126FE0EDB500C6ACC
:1023E000000F0B6E0F0E0C220BC0DEFF0CC0DDFFCA
:1023F000FC0EDB5028E0FB0EDB5013E0FB0EDB5045
:10240000F36EFD0EDB5004E0D890F336E806FCE1F5
:10241000F3500B6EDECFE9FFDDCFEAFFF350EF1292
:1024200012D0010EF36EFD0EDB5004E0D890F336AF
:10243000E806FCE1F350F31C0B6EDECFE9FFDDCFC5
:10244000EAFFE850EF16010EF36EFD0EDB5004E0DC
:10245000D890F336E806FCE1F3500B6EDECFE9FFCF
:10246000DDCFEAFFEF50F31402E0010E01D0000EC1
:102470000B6E020EE15C02E2E16AE552E16E0B5086
:10248000E552E7CFD9FF120004D8D0EC0AF043D8C8
:10249000FED70F0EC112800E9B6E700ED36E100E03
:1024A000D26ED2AEFED7B50EE96E0F0EEA6E900E6A
:1024B000EF6E0F01030E5B6F5C6B5D6B5E6B5F6BB2
:1024C00002D816EF08F08B9494949586938A958899
:1024D000958A959C959E4D0EE66EE66A1C0EE66EFC
:1024E00054EC18F0E552E552E55292800F015B8101
:1024F000C16ABE0EC06E010EC26E92805B81C16A5F
:10250000BE0EC06E010EC26E0501F46BF56BF66B6C
:10251000F76BF86B1200D9CFE6FFE1CFD9FF150EAC
:10252000E1260501F85102E071EC16F0200E0001E1
:10253000E76E6019E8AE02D0E73402D0E750605D84
:1025400001E227D36050020B01E023D30501F451CF
:10255000F51102E1000E08D0F4C5E9FFF5C5EAFF68
:10256000EF50800B01E0010E000901E012D30501DC
:1025700000519B0A01E1B5D2010A01E187D2030AA9
:1025800001E15AD2010A01E132D2A00A01E10BD2E3
:102590000F0A01E1E8D1BE0A01E1DFD1010A01E140
:1025A000BDD10F0A01E1A1D1010A01E174D1030AF1
:1025B00001E143D1010A01E111D1070A01E1DFD0B4
:1025C000010A01E1A1D0030A01E183D0010A6BE015
:1025D000C80A52E00F0A39E0010A32E0030A2CE08F
:1025E000010A13E0070A0FE0010A09E0030A05E007
:1025F000010A01E0BBD21BDBB9D226DBB7D201C591
:10260000E6FF29DB20D03ADBB1D23CDB0501516F7C
:10261000440E506F0501F651F71102E1000E08D08B
:10262000F6C5E9FFF7C5EAFFEF50800B01E0010EA8
:10263000000901E09BD21BD101C5E6FF28DB03D0D6
:1026400001C5E6FF34DBE55291D242DB0501516F53
:10265000470E506F0501F651F71102E1000E08D048
:10266000F6C5E9FFF7C5EAFFEF50800B01E0010E68
:10267000000901E07BD2FBD031DB0501516F480E30
:10268000506F0501F651F71102E1000E08D0F6C5B2
:10269000E9FFF7C5EAFFEF50800B01E0010E0009EA
:1026A00001E064D2E4D00501F86B8B50040B01E02B
:1026B000010E0B6E8C50020B01E0010E0B5C03E16E
:1026C0008B748C7253D28BA402D08C824FD28C929A
:1026D0004DD20501F651F71102E1000E08D0F6C502
:1026E000E9FFF7C5EAFFEF50800B01E0010E00099A
:1026F00001E03CD20501810E506F83A603D0010E8C
:10270000516FB5D0516BB3D00501F651F71102E10D
:10271000000E08D0F6C5E9FFF7C5EAFFEF50800BC1
:1027200001E0010E000901E021D20501820E506F87
:10273000010505E18350100B01E0010EDF6E020E72
:10274000015D05E18350200B01E0010EDF6E030EF9
:10275000015D05E18350400B01E0010EDF6E040EC8
:10276000015D05E18350800B01E0010EDF6EDF04A7
:1027700003E1010E516F01D0516B526B78D002050D
:1027800003E1010EDF6E04D0025101E0EFD1DF6AF8
:102790000151040A1CE0070A13E0010A0AE0030AD7
:1027A00001E0E4D1DF50E8B08C88E8B0DFD18C984C
:1027B000DDD1DF50E8B08C8AE8B0D8D18C9AD6D180
:1027C000DF50E8B08C8CE8B0D1D18C9CCFD1DF50F9
:1027D000E8B08C8EE8B0CAD18C9EC8D1020503E166
:1027E000010EDF6E04D0025101E0C0D1DF6A015159
:1027F000040A1CE0070A13E0010A0AE0030A01E0E8
:10280000B5D1DF50E8B09588E8B0B0D19598AED199
:10281000DF50E8B0958AE8B0A9D1959AA7D1DF50EA
:10282000E8B0958CE8B0A2D1959CA0D1DF50E8B07B
:10283000958EE8B09BD1959E99D10501F651F7117F
:1028400002E1000E08D0F6C5E9FFF7C5EAFFEF5038
:10285000800B01E0010E000901E088D10501850E21
:10286000506FF0C551F5F1C552F5F2C553F5400E64
:10287000E66E500EE66E050EE66E010EE66EE66E34
:102880008CEC09F00B6E050EE15E0B50F3CFF6F504
:10289000F4CFF7F56BD1010EF36E030EF3CFDBFF30
:1028A000040EDB6AACA2FED7030EDBCFE9FF040EF9
:1028B000DBCFEAFF000EE926050EEA22EF50E66EB6
:1028C000C6EC18F0E552030EDB2A040E01E3DB2A06
:1028D000030EDBCFE9FF040EDBCFEAFF000EE92693
:1028E000050EEA22EF50DEE141D10501F651F71164
:1028F00002E1000E08D0F6C5E9FFF7C5EAFFEF5088
:10290000800B01E0010E000901E030D10501870EC6
:10291000506F9EAA20D0010E516F15D10501F651BE
:10292000F71102E1000E08D0F6C5E9FFF7C5EAFF8E
:10293000EF50800B01E0010E000901E017D1050105
:10294000880E506F9EAA07D0010E516F8DEC18F0C3
:102950000501526FF8D0516BF6D001C5E6FFC6EC09
:1029600018F0E55203D10501F651F71102E1000E0E
:1029700008D0F6C5E9FFF7C5EAFFEF50800B01E08C
:10298000010E000901E0F2D030D9050EF3CFDBFFD4
:10299000060EF4CFDBFF0501370E506F050EDBCFBF
:1029A00051F5060E21D0050EC26E0501F651F71144
:1029B00002E1000E08D0F6C5E9FFF7C5EAFFEF50C7
:1029C000800B01E0010E000901E0D0D0ECD8070E29
:1029D000F3CFDBFF080EF4CFDBFF0501380E506F9D
:1029E000070EDBCF51F5080EDBCF52F5ACD0090E48
:1029F0000AC5DBFFE66AE66ADBCFE6FFBCDCE55230
:102A0000E552E552E76E0A0EE7CFDBFF0501F6510E
:102A1000F71102E1000E08D0F6C5E9FFF7C5EAFF9D
:102A2000EF50800B01E0010E000901E09FD005018D
:102A3000980E506F0A0E85D00B0E0AC5DBFF0C0EE8
:102A40000BC5DBFFDBCFE6FF010EE66E0B0EDBCF27
:102A5000E6FF91DCE552E552E552E76E0D0EE7CF59
:102A6000DBFF0501F651F71102E1000E08D0F6C5B3
:102A7000E9FFF7C5EAFFEF50800B01E0010E000906
:102A800075E10501990E506F0D0E5BD00E0E0AC553
:102A9000DBFF0F0E0BC5DBFFE66AE66ADBCFE6FF66
:102AA0000E0EDBCFE6FF93DCE552E552E552E55230
:102AB000E76E100EE7CFDBFF0501F651F71102E1DB
:102AC000000E08D0F6C5E9FFF7C5EAFFEF50800B0E
:102AD00001E0010E00094AE105019A0E506F100E47
:102AE00030D0110E0AC5DBFF120E0BC5DBFF130E33
:102AF0000CC5DBFFDBCFE6FF010EE66E120EDBCF6F
:102B0000E6FF110EDBCFE6FF62DCE552E552E5524F
:102B1000E552E76E140EE7CFDBFF0501F651F71122
:102B200002E1000E08D0F6C5E9FFF7C5EAFFEF5055
:102B3000800B01E0010E000919E105019B0E506FA9
:102B4000140EDBCF51F5400EE66E500EE66E050E0C
:102B5000E66E010EE66EE66E8CEC09F00B6E050E6D
:102B6000E15E0B50F3CFF6F5F4CFF7F5400EE66ECD
:102B7000000EE66E050EE66EE66A010EE66E8CEC61
:102B800009F00B6E050EE15E0B50F3CFF4F5F4CFB8
:102B9000F5F5150EE15C02E2E16AE552E16EE552FF
:102BA000E7CFD9FF1200D9CFE6FFE1CFD9FF020E60
:102BB000E126DE6ADD6AC282C2B2FED7C350DF6E92
:102BC000010EC4CFDBFFDECF0BF0DDCF0CF00BC06E
:102BD000F3FF0CC0F4FF020EE15C02E2E16AE55291
:102BE000E16EE552E7CFD9FF1200D9CFE6FFE1CF82
:102BF000D9FF020EE126DE6ADD6AC282C2B2FED7CA
:102C0000C350DF6E010EC4CFDBFFDECF0BF0DDCF94
:102C10000CF00BC0F3FF0CC0F4FF020EE15C02E20B
:102C2000E16AE552E16EE552E7CFD9FF12009380E9
:102C300093823F0EC716C66AC56AC686C78EC68A05
:102C40001D0EC86E9E9612001F0EC514FDE1C750E2
:102C5000040BFAE11200D9CFE6FFE1CFD9FFF4DF90
:102C6000FE0EDB5004E1C580C5A004D0FDD7C582AF
:102C7000C5B2FED7E552E7CFD9FF1200C584C5B46F
:102C8000FED71200C550400B01E0010E1200D9CF53
:102C9000E6FFE1CFD9FFFE0EDB50C96EC6BE03D002
:102CA000C7B0FED7D1DFE552E7CFD9FF1200D9CFA9
:102CB000E6FFE1CFD9FFFE0EDB50E8B0C58AE8A001
:102CC000C59AC588C5B8FED7E552E7CFD9FF12002F
:102CD000BBDFC586C7A0FED7C9501200C7B0010C24
:102CE000000C0501F951FA1104E1100EF96F270EDD
:102CF000FA6FF907000EFA5B60A207D0F951FA11DA
:102D00002EE18B748BB413D027D00001605102E107
:102D10008B9422D0600502E18B8409D0020E605DA5
:102D200002E18B8419D0040E605D03E18B948C82E8
:102D30001200100E605D06E10501F951FA110FE174
:102D40008B740AD0200E605D0AE10501F951FA1179
:102D500006E18B748BA402D08C9212008C8212003C
:102D60001200120012001200A4EF17F012001E0E43
:102D7000E66E010EE66E55EC09F0E552E552400EA6
:102D8000E66E000EE66E050EE66EE66A010EE66E73
:102D90008CEC09F00B6E050EE15E0B50F3CFF4F5F1
:102DA000F4CFF5F5120000017F0520E10001800558
:102DB0001DE1A394D6DF60920001806B0501100E27
:102DC000FD6F0E0EFE6FFD07000EFE5BFD51FE1146
:102DD000FAE16084080EFD6F070EFE6FFD07000E1E
:102DE000FE5BFD51FE11FAE16094A3841200D9CF7D
:102DF000E6FFE1CFD9FFFD0EDBCF06F0FE0EDBCF05
:102E000007F0050E061801E1075036E0E8680618DD
:102E100002E17F0E07182FE0030E061801E10750AC
:102E200028E0020E061801E1075021E0010E061805
:102E300001E107501AE0740E061801E1075013E093
:102E4000750E061801E107500CE0730E061801E13B
:102E5000075005E0720E06180FE107500DD082DF13
:102E60000BD07EDF09D07DDF07D081DF05D07EDF8C
:102E700003D07ADF01D077DF010EE552E7CFD9FF2B
:022E800012003E
:0E2E82001201000200000008D8043F00020008
:102E90000102000109022900010100C032090400F9
:102EA000000203000000092111010001221C00079B
:102EB00005810340000107050103400001040309E7
:102EC0000434034D006900630072006F0063006802
:102ED0000069007000200054006500630068006E07
:102EE000006F006C006F0067007900200049006EE1
:102EF0000063002E002E03530069006D0070006C0B
:102F0000006500200048004900440020004400659E
:102F10000076006900630065002000440065006DD4
:102F2000006F000600FF0901A101190129401501E8
:102F30002540750895408100190129409100C094F1
:072F40002EBD2EC12EF52E5F
:082F4800040120511F0B0108D8
:102F500001E01200245101E01200060E215D1BE188
:102F60002351230A18E0010A0CE0030A14E10001CE
:102F7000610511E10001A60E716F2E0E726F090E30
:102F800006D00001230E716F2F0E726F1C0E746F2E
:102F9000756BC00E736F04012051600BE842E8426C
:102FA000E842E842E842010801E0120021510B0A20
:102FB00026E0080A19E0090A11E0080A05E00B0AF0
:102FC00023E0080A21E012000001FB0E716F050EDC
:102FD000726F010E746F756BC10E0FD00001800E01
:102FE000736F23C4FBF512000001FC0E716F050E18
:102FF000726F010E746F756B810E736F120000019A
:0A300000800E736F22C4FCF512006D
:06300A001E0EF66E100E12
:10301000F76E000EF86E00010900F550936F09007D
:10302000F550946F03E1936701D03DD00900F5504E
:103030008E6F0900F5508F6F0900F550906F0900F1
:103040000900F550E96E0900F550EA6E0900090023
:103050000900F550916F0900F550926F09000900C1
:10306000F6CF95F0F7CF96F0F8CF97F08EC0F6FF39
:103070008FC0F7FF90C0F8FF0001915302E1925317
:1030800007E00900F550EE6E9107F8E29207F9D7D4
:1030900095C0F6FF96C0F7FF97C0F8FF00019307B1
:0830A000000E945BBFD7120083
:0830A800D9CFE6FFDACFE6FF05
:1030B000E1CFD9FFE2CFDAFFAC6AAB6AFD0EDBB03D
:1030C000AC88DBA202D0AC8CAB8CDBB4AC8EDBA6C4
:1030D00002D0AB8801D0AB8ADBB8AC84DBBAAB865C
:1030E000DBAC02D09D8A01D09D9ADBAE02D09D88D8
:1030F00001D09D98FB0EDB50AF6EFC0EDBCF0CF0C9
:103100000CC00BF00C6A0B50B06EAC8AAB8EE55263
:0A311000E5CFDAFFE7CFD9FF120088
:06311A00D9CFE6FFDACF79
:10312000E6FFE1CFD9FFE2CFDAFFE652F20E05016A
:10313000FF17ABAC03D0FF91ABB0FF81ABB4FF8501
:10314000ABB2FF87AE50DF6EDF50E552E552E5CF00
:08315000DAFFE7CFD9FF1200FE
:08315800FE0EE3CFE9FFFF0EBC
:10316000E3CFEAFFE9CFF3FFEACFF4FFFB0EE35032
:1031700003E1FC0EE35009E0FB0EE30602E2FC0E65
:0C318000E306FD0EE350EE6EF1D71200E6
:04318C00D9CFE6FFB2
:10319000DACFE6FFE1CFD9FFE2CFDAFFACAC04D063
:1031A000AC900501FFB3AC80FD0EDB50AD6EE55277
:0A31B000E5CFDAFFE7CFD9FF1200E8
:0631BA00000EF36E00EEB2
:1031C00000F0080E01D81200EA6002D0EE6AFCD7C7
:0A31D000F350E9601200EE6AFCD72C
:0631DA0013EE00F023EEED
:1031E00000F0F86A0A9C05EC18F003EC08F044ECD7
:0631F00012F0FBD71200F3
:0A31F6003034310000000000010039
:0132000000CD
:020000040030CA
:0100000021DE
:0100010008F6
:010002001FDE
:010003003EBE
:010005009169
:010006008178
:00000001FF
