:020000040000FA
:0600000024EF18F01200CD
:0600080004EF08F01200F5
:060018000CEF08F01200DD
:0610000024EF18F01200BD
:021006001200D6
:0610080049EF11F0120097
:0610180094EF11F012003C
:02101E000100CF
:0C10200064300000AE0500000B00000072
:04102C00D9CFE6FF33
:10103000E1CFD9FFE652A394676A656A6A6A010E36
:10104000E66EE66AE66A6B0EE66E0F0EE66EE3EC9F
:1010500017F00B6E050EE15E0B50160E626E9F0EC2
:10106000666E7B0E646EDF6ADF500B6E0C6A080ED4
:101070000B5C000E0C5810E2DF50040DF3CFE9FFBB
:10108000F4CFEAFF000EE926040EEA22EE6AEE6AC9
:10109000EE6AEE6ADF2AE8D7608C636A6098609C2B
:1010A00065A607D065960501936B986B996B9A6B53
:1010B000F7D70501010EAA6FAB6FAC6BAD6BA06BE0
:1010C000DF6A020EDF5C26E2EA6ADF34FE0BEA36F4
:1010D000E96E8B0EE926050EEA22EE6AED6AEA6AEF
:1010E000DF34FE0BEA36E96E870EE926050EEA22AA
:1010F000EE6AED6ADF50EA6AA40FE96E050EEA2295
:10110000EF6ADF50EA6AA60FE96E050EEA22EF6A7F
:10111000DF2AD7D70501080E8B6F040E8C6F160ED1
:101120006A6E0401200E026F040E036F080E016F39
:10113000840E006F0501816B806BE552E552E7CFAD
:10114000D9FF1200D9CFE6FFE1CFD9FFE652050162
:10115000800507E160BA05D0656A64806488020E84
:10116000806F6550040B06E06450040B03E0659447
:1011700088EC0EF060B259D06550010B09E0645064
:10118000010B06E053DFA3840501040E806F659018
:101190006550100B06E06450100B03E073EC0EF08A
:1011A000659865AC19D064AC0FD0010EE66EE66AA6
:1011B000000EE66EE66A730EE66EE66A2EEC16F038
:1011C0000B6E060EE15E0B50659C0501A85101E017
:1011D000A807A85101E1FBD96550200B05E0645038
:1011E000200B02E05AEC0EF06550020B13E0645045
:1011F000020B10E0010EE66EE66A000EE66EE66A8D
:10120000E6687F0EE66E2EEC16F00B6E060EE15EC3
:101210000B50676A040E0501E76E8019E8AE02D034
:10122000E73402D0E750805D02E2A49439D064A68E
:1012300036D0DF6A040EDF5C32E265A630D061CFC3
:10124000A1F50501A151780BE842E842E842A26FFE
:101250006596A1B506D0A251EA6AA60FE96E050E01
:1012600005D0A251EA6AA40FE96E050EEA22EF70DA
:10127000A25103E19FEC0EF010D0000EE66EE66A7C
:10128000A10EE66E050EE66E720EE66EE66A2EECB6
:1012900016F00B6E060EE15E0B50DF2ACBD7A4943E
:1012A000E552E552E7CFD9FF1200D9CFE6FFE1CFF3
:1012B000D9FF020EE126FD0EDBA407D0E66AFE0E82
:1012C000DBCFE6FF13DAE552E552FD0EDBA208D0D4
:1012D000010EE66EFE0EDBCFE6FF08DAE552E552C0
:1012E000FE0EDB500C6A6A0F0B6E0F0E0C220BC049
:1012F000DEFF0CC0DDFFDECFE9FFDDCFEAFFFD0E34
:10130000DBCFEFFF020EE15C02E2E16AE552E16E43
:10131000E552E7CFD9FF1200D9CFE6FFE1CFD9FFE1
:10132000020EE126FD0EDB500AE0FE0EEA6ADB3417
:10133000FE0BEA36E96E8B0EE926050E09D0FE0E8D
:10134000EA6ADB34FE0BEA36E96E870EE926050E03
:10135000EA22EECFDEFFEDCFDDFFD9CFE9FFDACF16
:10136000EAFFEE50ED1003E1F36AF46A44D0DECFF9
:10137000E9FFDDCFEAFF020EE926000EEA22FB0EAE
:10138000DBCFEEFFFC0EDBCFEDFFDECFE9FFDDCFE5
:10139000EAFFEE52FA0EDBCFEFFF400EDECFE9FFA1
:1013A000DDCFEAFFE850EF16880EDECFE9FFDDCF94
:1013B000EAFFE850EF12FD0EDB500AE0FE0EEA6A8B
:1013C000DB34FE0BEA36E96E8B0EE926050E09D0FA
:1013D000FE0EEA6ADB34FE0BEA36E96E870EE9267A
:1013E000050EEA22EF74DECF0BF0DDCF0CF00BC060
:1013F000F3FF0CC0F4FF020EE15C02E2E16AE55289
:10140000E16EE552E7CFD9FF1200D9CFE6FFE1CF79
:10141000D9FF020EE126FE0EDB5020E185C5E9FF73
:1014200086C5EAFFEE52080EEF6E85C5E9FF86C558
:10143000EAFF020EE926000EEA22200EEE6E040EEE
:10144000ED6E85C5E9FF86C5EAFF8C0EEF6E8BC594
:10145000E9FF8CC5EAFF840EEF6E3BD0FD0EDB503A
:10146000E8240D6EFE0EDB50040DF3500D24040D28
:10147000F3CF0BF0F4CF0CF0000E0B26040E0C2271
:101480000BC0DEFF0CC0DDFF840EDECFE9FFDDCF39
:10149000EAFFE850EF12FD0EDB50E8240D6EFE0E61
:1014A000DB50040DF3500D24010F040DF3CF0BF0AE
:1014B000F4CF0CF0000E0B26040E0C220BC0DEFF46
:1014C0000CC0DDFF840EDECFE9FFDDCFEAFFE85080
:1014D000EF12020EE15C02E2E16AE552E16EE552D2
:1014E000E7CFD9FF1200D9CFE6FFE1CFD9FF60A83F
:1014F0004ED0FE0EEA6ADB34FE0BEA36E96E8B0E46
:10150000E926050EEA22EE50EFCFEAFFE96E400E23
:10151000EE16EE6AEE6AEE6AFE0EEA6ADB34FE0B47
:10152000EA36E96E8B0EE926050EEA22EE50EFCF81
:10153000EAFFE96EEE7CFE0EEA6ADB34FE0BEA3669
:10154000E96E8B0EE926050EEA22EF74400E0B6E53
:10155000FE0EEA6ADB34FE0BEA36E96E8B0EE926F4
:10156000050EEA22EE50EFCFEAFFE96E0B50EF16C0
:10157000FE0EEA6ADB34FE0BEA36E96E8B0EE926D4
:10158000050EEA22EE50EFCFEAFFE96EEF7CE5525E
:10159000E7CFD9FF1200606A646A0501806B120010
:1015A0000501805113E1606A646A160E626E9F0E37
:1015B000666E7B0E646ED08EA584A384F28E60B6B8
:1015C00002D06086FCD70501010E806F1200050174
:1015D000AA514DE1010EAA6FAB5149E1010EAB6F6B
:1015E000020E905D0DE18BC5E9FF8CC5EAFFEE525E
:1015F000EF6A8BC5E9FF8CC5EAFFC80EEF6E1200DB
:10160000900535E1A36B83C5E9FF84C5EAFFEE527F
:10161000080EEF6E83C5E9FF84C5EAFF020EE926D6
:10162000000EEA22200EEE6E040EED6E83C5E9FF79
:1016300084C5EAFF840EEF6E010EA36F85C5E9FF36
:1016400086C5EAFFEE52080EEF6E85C5E9FF86C536
:10165000EAFF020EE926000EEA22200EEE6E040ECC
:10166000ED6E85C5E9FF86C5EAFF800EEF6E1200BC
:101670000501AC6BAD6B020E905D18E185C5E9FF0D
:1016800086C5EAFFEE52080EEF6E85C5E9FF86C5F6
:10169000EAFF020EE926000EEA22280EEE6E040E84
:1016A000ED6E85C5E9FF86C5EAFF1DD094510401A2
:1016B000265D050195510401275904E226C494F5DD
:1016C00027C495F5CAD88BC5E9FF8CC5EAFF020E81
:1016D000E926000EEA22280EEE6E040EED6E8BC592
:1016E000E9FF8CC5EAFFC80EEF6E1200D9CFE6FF06
:1016F000E1CFD9FF020EE126000EDE6E040EDD6E94
:10170000FD0EDB50E8240D6EFE0EDB50040DF35091
:101710000D24040DF4CF0CF0D9CFE9FFDACFEAFFA6
:10172000F350EE260C50ED22DECFE9FFDDCFEAFFCD
:10173000EF9EFD0EDB500AE1FE0EEA6ADB34FE0B83
:10174000EA36E96E870EE926050E09D0FE0EEA6A32
:10175000DB34FE0BEA36E96E8B0EE926050EEA2233
:10176000DECFEEFFDDCFEDFFDECFE9FFDDCFEAFF1D
:10177000EF9CDECFE9FFDDCFEAFF040EE926000E85
:10178000EA22EF8C020EE15C02E2E16AE552E16ED0
:10179000E552E7CFD9FF12006098050193BF2BD027
:1017A00098AF09D0020E906FAD5101E161DF0501E4
:1017B000AB6BAA6B120085C5E9FF86C5EAFFEE5246
:1017C000080EEF6E85C5E9FF86C5EAFF020EE92621
:1017D000000EEA22200EEE6E040EED6E85C5E9FFC6
:1017E00086C5EAFF8C0EEF6E8BC5E9FF8CC5EAFF5C
:1017F000840EEF6E1200040120AF0DD00501010E22
:10180000906FAC5101E134DF0501AB6BAA6BA951BC
:1018100023E1E7EF0AF00501020E906F85C5E9FFAD
:1018200086C5EAFFEE52080EEF6E85C5E9FF86C554
:10183000EAFF020EE926000EEA22200EEE6E040EEA
:10184000ED6E85C5E9FF86C5EAFF840EEF6EAB6BD2
:10185000AA6BA95101E1BBDE1200D9CFE6FFE1CFAF
:10186000D9FFE652080EDF6E0501945D000E955912
:101870000AE294C5DFFF8F5102E1010E03D08F050C
:1018800002E1020E8F6FDF500C6AE850945D946F96
:101890000C509559956F8BC5E9FF8CC5EAFFEE5248
:1018A000DFCFEFFF280E9D6F040E9E6F93B118D00F
:1018B000DF502DE091C5F6FF92C5F7FF912B000E8A
:1018C00092230800F550E66E9DC5E9FF9EC5EAFF2C
:1018D0009D2B000E9E23E552E750EF6EDF06E8D702
:1018E000DF5015E091C5E9FF92C5EAFF912B000E8C
:1018F0009223EF50E66E9DC5E9FF9EC5EAFF9D2B42
:10190000000E9E23E552E750EF6EDF06E9D7E55261
:10191000E552E7CFD9FF1200D9CFE6FFE1CFD9FFDB
:10192000020EE12683C5E9FF84C5EAFFEE52EFCF40
:10193000DFFFDFCF0BF00B500501995D000E9A59C8
:1019400002E299C5DFFFDF500B6E0C6AE850995D2B
:10195000996F0C509A599A6F010EDB6ADF50F36E43
:10196000010EDBCFF4FFF350F45C16E2010EDB5006
:10197000EA6A280FE96E040EEA22EF50E66E96C579
:10198000E9FF97C5EAFF962B000E9723E552E75033
:10199000EF6E010EDB2AE2D7000ED8809955000EBB
:1019A0009A5527E285C5E9FF86C5EAFFEE52080E83
:1019B000EF6E85C5E9FF86C5EAFF020EE926000E37
:1019C000EA22280EEE6E040EED6E83C5E9FF84C593
:1019D000EAFFEF50400B06E185C5E9FF86C5EAFF47
:1019E000C80E05D085C5E9FF86C5EAFF880EEF6EF3
:1019F00028D085C5E9FF86C5EAFFEE52080EEF6ED6
:101A000085C5E9FF86C5EAFF020EE926000EEA2237
:101A1000200EEE6E040EED6E85C5E9FF86C5EAFF69
:101A2000840EEF6E9B519C1107E005D09CC5FAFF18
:101A300005019B51F96EFADF0501989FA95101E15B
:101A4000C6DD020EE15C02E2E16AE552E16EE552BA
:101A5000E7CFD9FF1200D9CFE6FFE1CFD9FFE65299
:101A60000501938F010EE66EE66AE66A6B0EE66E7E
:101A70000F0EE66EE3EC17F00B6E050EE15E0B50F9
:101A8000200EE66EE66AE66A000EE66E040EE66E6C
:101A9000E3EC17F00B6E050EE15E0B50608CDF6A15
:101AA000020EDF5C10E2DF50EA6AA40FE96E050E59
:101AB000EA22EF6ADF50EA6AA60FE96E050EEA2213
:101AC000EF6ADF2AEDD7010EE66EE66AE66A820E5D
:101AD000E66E050EE66EE3EC17F00B6E050EE15EAA
:101AE0000B50609C0501080E8B6F040E8C6F000E6E
:101AF000836F040E846F83C585F5866F22C481F5DC
:101B0000815102E1100E12D0010EE66EE66A810EDE
:101B1000E66E050EE66E010EE66EE66A2EEC16F037
:101B20000B6E060EE15E0B500501200E806FE55234
:101B3000E552E7CFD9FF1200800E0401205D58E185
:101B40000501C00E936F04012351030A2FE0010A1F
:101B500009E0030A4BE10501F00E916F2C0E926F24
:101B6000120E3ED02251F66EF76AD890F636F7364E
:101B7000AD0EF6262D0EF7220900F5CF91F50A00DD
:101B8000F5CF92F5020E0501F76A9125F66E925196
:101B9000F7220800F5CF94F5030EF76A9125F66E4B
:101BA0009251F7220800F5CF95F51200030E225D41
:101BB0001AE22251F66EF76AD890F636F736AF0E73
:101BC000F6262D0EF7220900F5CF91F50A00F5CF84
:101BD00092F591C5F6FF92C5F7FF0800F550050193
:101BE000946F956B12000501936B12000501936BC6
:101BF0001200D9CFE6FFE1CFD9FF020EE1260401A2
:101C0000286B296B20511F0B020A11E0030A0CE01C
:101C1000010A3CE10501938F0401288105019F051C
:101C200035E10401288332D00501938F2FD00501BF
:101C3000938F040124BF0BD024510F0BE96EEA6A85
:101C4000D890E936EA36870EE926050E0AD02451E7
:101C50000F0BE96EEA6AD890E936EA368B0EE92670
:101C6000050EEA22EECFDEFFEDCFDDFFDECFE9FF8E
:101C7000DDCFEAFFEF50800B09E0DECFE9FFDDCFDB
:101C8000EAFFEF50040B02E0010E286F050193AF4D
:101C900007D0280E916F040E926F9381020E946FFD
:101CA000020EE15C02E2E16AE552E16EE552E7CF45
:101CB000D9FF12006AA015D083C5E9FF84C5EAFFE9
:101CC000EF5080080DE18BC5E9FF8CC5EAFFEF50AE
:101CD000840806E183C5E9FF84C5EAFF8C0EEF6E38
:101CE0006A90659A12006484659860820501010E0D
:101CF000A06F000EE66EE66AE66EE66A750EE66EA8
:101D0000E66A2EEC16F00B6E060EE15E0B5012002A
:101D10000501A06B000EE66EE66AE66EE66A740EDA
:101D2000E66EE66A2EEC16F00B6E060EE15E0B50C8
:101D30006092649465A402D06594FCD71200D9CF58
:101D4000E6FFE1CFD9FFE65205012D0EA86FFD0E8B
:101D5000A11553E17E0EA115E8407F0B040DF3CFD2
:101D600083F5F4CF84F5000E8327040E842383C506
:101D700085F584C586F5857583C5E9FF84C5EAFFC9
:101D8000EF503C0BE842E8420D0835E1DF6A080EEF
:101D9000DF5C23E283C5E9FF84C5EAFF020EE92682
:101DA000000EEA22EE50EFCFEAFFE96EEF50E66E4A
:101DB000DF50EA6A200FE96E040EEA22E552E7508E
:101DC000EF6E83C5E9FF84C5EAFF020EE926000E27
:101DD000EA22EE2AEF22DF2ADAD783C5E9FF84C59B
:101DE000EAFF020EE926000EEA22200EEE6E040E35
:101DF000ED6E0DD807D03AD805D0FD0EA115040818
:101E000001E159D8E552E552E7CFD9FF12000501AB
:101E10008F6BA96BAC6BAD6BA36B906B8BC5E9FF44
:101E20008CC5EAFFEF9E8B758BC5E9FF8CC5EAFF79
:101E3000EF9E8B7585C5E9FF86C5EAFFEF9E936B24
:101E4000946B956B986B996B9A6B8CD8000EE66EC1
:101E5000E66AE66EE66A030EE66EE66A2EEC16F0B9
:101E60000B6E060EE15E0B50CCEF0BF0020E05017F
:101E7000905D02E18CEF0CF0906BA3511AE185C5E7
:101E8000E9FF86C5EAFFEE52080EEF6E85C5E9FF51
:101E900086C5EAFF020EE926000EEA22200EEE6E4B
:101EA000040EED6E85C5E9FF86C5EAFF8C0EEF6E68
:101EB0001200A36B1200D9CFE6FFE1CFD9FFE652A3
:101EC0008BC5E9FF8CC5EAFFEF50400B01E0010E26
:101ED000DF6E05018B75080E805D08E122C463FF8B
:101EE000635002E0100E01D0040E806F900526E1D1
:101EF0008BC5E9FF8CC5EAFF020EE926000EEA2237
:101F0000280EEE6E040EED6EA8DC020E05018F5D4C
:101F100006E18BC5E9FF8CC5EAFF840E0DD0DF50CA
:101F200006E18BC5E9FF8CC5EAFFC80E05D08BC55D
:101F3000E9FF8CC5EAFF880EEF6E0FD098AF0CD08A
:101F40009B519C1107E005D09CC5FAFF05019B51F0
:101F5000F96EFADF0501989F906BE552E552E7CFE5
:101F6000D9FF120004012051600BE842E842E84228
:101F7000E842E842000901E0120021510C0A50E059
:101F80000B0A3FE00C0A31E0010A22E00B0A1EE0D6
:101F9000020A1CE0030A18E0080A10E0010A0CE03B
:101FA0000F0A08E0030A01E012000501938F080EF2
:101FB000806F12009CEF0DF02BEF0DF00501810EEC
:101FC000916F050E926F0CD0F9EF0DF011EF10F03C
:101FD00024510501916F926B820E9127050E922379
:101FE0009381010E946F938F12000501938F04016A
:101FF0002451EA6A820FE96E050EEA2222C4EFFF3D
:102000001200000EE66EE66AE66EE66A020EE66E04
:10201000E66A2EEC16F00B6E060EE15E0B50120017
:102020001200D9CFE6FFE1CFD9FF050EE12604016A
:10203000220510E120511F0B00090CE10501938FCF
:10204000030E0401215D04E10501010E9F6F02D022
:1020500005019F6B0401225101E011D120511F0B9A
:10206000020801E00CD124510F0B000901E107D156
:1020700024510F0B010801E202D1200E0501805D01
:1020800001E0FDD0938F040124BF16D024510F0B23
:10209000E96EEA6AD890E936EA36870EE926050E37
:1020A000EA22EECFDEFFEDCFDDFF24510F0BEA6A0F
:1020B000A60FE96E050E15D024510F0BE96EEA6AE2
:1020C000D890E936EA368B0EE926050EEA22EECFE5
:1020D000DEFFEDCFDDFF24510F0BEA6AA40FE96E9E
:1020E000050EEA22020EEFCFDBFFD950020FE96E98
:1020F000DACFEAFFEF50010B03E1000EDF9401D0CD
:10210000DF8424BF0BD024510F0BE96EEA6AD8900C
:10211000E936EA36870EE926050E0AD024510F0B60
:10212000E96EEA6AD890E936EA368B0EE926050EA2
:10213000EA22DECFEEFFDDCFEDFF030E215D20E1D1
:10214000DECFE9FFDDCFEAFFEF50800B11E024BFC7
:1021500007D024510F0BEA6AA60FE96E050E06D0D0
:1021600024510F0BEA6AA40FE96E050EEA22EF82F2
:10217000840EDECFE9FFDDCFEAFFE850EF127FD01B
:10218000DF74DECFE9FFDDCFEAFFEF50800B1BE00D
:10219000DECFE9FFDDCFEAFFEF9EDECFE9FFDDCF47
:1021A000EAFFEF8C020EE66EE66ADECFE6FFDDCFD9
:1021B000E6FF050EE66EE66A2EEC16F00B6E060ED6
:1021C000E15E0B5005D0DECFE9FFDDCFEAFFEF8CFB
:1021D000DF74D950020FE96EDACFEAFFEF50020B3D
:1021E00007E1DECFE9FFDDCFEAFFEF50800B2BE008
:1021F000040124BF07D024510F0BEA6AA60FE96E31
:10220000050E06D024510F0BEA6AA40FE96E050EE5
:10221000EA22EF923B0E0B6EDECFE9FFDDCFEAFF45
:10222000E850EF16020EE66EE66ADECFE6FFDDCF7F
:10223000E6FF050EE66EE66A2EEC16F00B6E060E55
:10224000E15E0B5007D03B0EDECFE9FFDDCFEAFFAA
:10225000E850EF16040124510F0B0C6A6A0F0B6E45
:102260000F0E0C22030E0BC0DBFF040E0CC0DBFFB5
:10227000030EDBCFE9FF040EDBCFEAFFEF90050E84
:10228000E15C02E2E16AE552E16EE552E7CFD9FF97
:0222900012003A
:0E229200DACFE4FFE2CFDAFFE9CFE4FFEACFD4
:1022A000E4FFF6CFE4FFF7CFE4FFF5CFE4FFF3CF91
:1022B000E4FFF4CFE4FFFACFE4FF00EE00F00B0EF2
:1022C000E80403E3EECFE4FFFBD700EE0BF0030ED0
:1022D000E80403E3EECFE4FFFBD7E652A2EC08F0FC
:1022E000E55200EE0DF0030EE80403E3E5CFEDFF49
:1022F000FBD700EE0AF00B0EE80403E3E5CFEDFF99
:10230000FBD7E5CFFAFFE5CFF4FFE5CFF3FFE5CF4D
:10231000F5FFE5CFF7FFE5CFF6FFE5CFEAFFE5CF25
:10232000E9FFE5CFDAFF1100D8CFE4FFE0CFE4FF0B
:10233000E46EDACFE4FFE652E552E5CFDAFFE5508E
:10234000E5CFE0FFE5CFD8FF10000F015D95948445
:10235000C70EBB6E0C0EBD6E640EBE6E060EBA12BC
:10236000949412009586949483B603D0040E8B6ED9
:1023700012008B941200D9CFE6FFE1CFD9FF020EF5
:10238000E126FE0EDB500C6A000F0B6E0F0E0C22C6
:102390000BC0DEFF0CC0DDFFFD0EDB5007E0DECF23
:1023A000E9FFDDCFEAFFFC0EDBCFEFFFDECFE9FF79
:1023B000DDCFEAFFEF500B6E020EE15C02E2E16A54
:1023C000E552E16E0B50E552E7CFD9FF1200D9CFAD
:1023D000E6FFE1CFD9FF020EE126FE0EDB500C6ACC
:1023E000000F0B6E0F0E0C220BC0DEFF0CC0DDFFCA
:1023F000FC0EDB5028E0FB0EDB5013E0FB0EDB5045
:10240000F36EFD0EDB5004E0D890F336E806FCE1F5
:10241000F3500B6EDECFE9FFDDCFEAFFF350EF1292
:1024200012D0010EF36EFD0EDB5004E0D890F336AF
:10243000E806FCE1F350F31C0B6EDECFE9FFDDCFC5
:10244000EAFFE850EF16010EF36EFD0EDB5004E0DC
:10245000D890F336E806FCE1F3500B6EDECFE9FFCF
:10246000DDCFEAFFEF50F31402E0010E01D0000EC1
:102470000B6E020EE15C02E2E16AE552E16E0B5086
:10248000E552E7CFD9FF120004D8D0EC0AF043D8C8
:10249000FED70F0EC112800E9B6E700ED36E100E03
:1024A000D26ED2AEFED7B50EE96E0F0EEA6E900E6A
:1024B000EF6E0F01030E5B6F5C6B5D6B5E6B5F6BB2
:1024C00002D816EF08F08B9494949586938A958899
:1024D000958A959C959E4D0EE66EE66A1C0EE66EFC
:1024E0008BEC17F0E552E552E55292800F015B81CB
:1024F000C16ABE0EC06E010EC26E92805B81C16A5F
:10250000BE0EC06E010EC26E0501B26BB36BB46B32
:10251000B56BB66B1200D9CFE6FFE1CFD9FF130E32
:10252000E1260501B65101E013DB200E0501E76E3F
:102530008019E8AE02D0E73402D0E750805D01E2B6
:10254000B9D26050020B01E0B5D20501B251B3110E
:1025500002E1000E08D0B2C5E9FFB3C5EAFFEF50B3
:10256000800B01E0010E000901E0A4D20501005139
:102570009B0A01E147D2010A01E119D2030A01E1F4
:10258000ECD1010A01E1C4D1A00A01E19DD10F0AF9
:1025900001E17AD1BE0A01E171D1010A01E14FD115
:1025A0000F0A01E133D1010A01E108D1030A01E177
:1025B000D7D0010A01E1A5D0070A01E173D0010AD1
:1025C00036E0030A19E0010A01E061D20501B66BA9
:1025D0008B50040B01E0010E0B6E8C50020B01E0DE
:1025E000010E0B5C03E18B748C7251D28BA402D070
:1025F0008C824DD28C924BD20501B451B51102E1BF
:10260000000E08D0B4C5E9FFB5C5EAFFEF50800B56
:1026100001E0010E000901E03AD20501810E406F90
:1026200083A603D0010E416FB5D0416BB3D0050135
:10263000B451B51102E1000E08D0B4C5E9FFB5C52B
:10264000EAFFEF50800B01E0010E000901E01FD20C
:102650000501820E406F010505E18350100B01E07A
:10266000010EDF6E020E015D05E18350200B01E0DB
:10267000010EDF6E030E015D05E18350400B01E0AA
:10268000010EDF6E040E015D05E18350800B01E059
:10269000010EDF6EDF0403E1010E416F01D0416BDB
:1026A000426B78D0020503E1010EDF6E04D00251C7
:1026B00001E0EDD1DF6A0151040A1CE0070A13E0D2
:1026C000010A0AE0030A01E0E2D1DF50E8B08C8899
:1026D000E8B0DDD18C98DBD1DF50E8B08C8AE8B06F
:1026E000D6D18C9AD4D1DF50E8B08C8CE8B0CFD161
:1026F0008C9CCDD1DF50E8B08C8EE8B0C8D18C9ED8
:10270000C6D1020503E1010EDF6E04D0025101E0E3
:10271000BED1DF6A0151040A1CE0070A13E0010A76
:102720000AE0030A01E0B3D1DF50E8B09588E8B0D1
:10273000AED19598ACD1DF50E8B0958AE8B0A7D17A
:10274000959AA5D1DF50E8B0958CE8B0A0D1959CC2
:102750009ED1DF50E8B0958EE8B099D1959E97D183
:102760000501B451B51102E1000E08D0B4C5E9FF6E
:10277000B5C5EAFFEF50800B01E0010E000901E052
:1027800086D10501850E406FAEC541F5AFC542F556
:10279000B0C543F5400EE66E400EE66E050EE66EE1
:1027A000010EE66EE66E8CEC09F00B6E050EE15E36
:1027B0000B50F3CFB4F5F4CFB5F569D1010EF36E3C
:1027C000DB6E020EDB6AACA2FED7010EDBCFE9FFA7
:1027D000020EDBCFEAFF000EE926050EEA22EF50DB
:1027E000E66EFDEC17F0E552010EDB2A020E01E366
:1027F000DB2A010EDBCFE9FF020EDBCFEAFF000E82
:10280000E926050EEA22EF50DEE141D10501B4517F
:10281000B51102E1000E08D0B4C5E9FFB5C5EAFF65
:10282000EF50800B01E0010E000901E030D10501FD
:10283000870E406F9EAA20D0010E416F15D1050171
:10284000B451B51102E1000E08D0B4C5E9FFB5C519
:10285000EAFFEF50800B01E0010E000901E017D103
:102860000501880E406F9EAA07D0010E416FC4EC8F
:1028700017F00501426FF8D0416BF6D001C5E6FFB5
:10288000FDEC17F0E55203D10501B451B51102E199
:10289000000E08D0B4C5E9FFB5C5EAFFEF50800BC4
:1028A00001E0010E000901E0F2D030D9030EF3CFB0
:1028B000DBFF040EF4CFDBFF0501370E406F030E84
:1028C000DBCF41F5040E21D0050EC26E0501B451D7
:1028D000B51102E1000E08D0B4C5E9FFB5C5EAFFA5
:1028E000EF50800B01E0010E000901E0D0D0ECD8E0
:1028F000050EF3CFDBFF060EF4CFDBFF0501380E2C
:10290000406F050EDBCF41F5060EDBCF42F5ACD0B4
:10291000070E0AC5DBFFE66AE66ADBCFE6FF2BDDC2
:10292000E552E552E552E76E080EE7CFDBFF050101
:10293000B451B51102E1000E08D0B4C5E9FFB5C528
:10294000EAFFEF50800B01E0010E000901E09FD08B
:102950000501980E406F080E85D0090E0AC5DBFFF1
:102960000A0E0BC5DBFFDBCFE6FF010EE66E090E9C
:10297000DBCFE6FF00DDE552E552E552E76E0B0ED8
:10298000E7CFDBFF0501B451B51102E1000E08D01D
:10299000B4C5E9FFB5C5EAFFEF50800B01E0010EB9
:1029A000000975E10501990E406F0B0E5BD00C0E0E
:1029B0000AC5DBFF0D0E0BC5DBFFE66AE66ADBCF5F
:1029C000E6FF0C0EDBCFE6FF02DDE552E552E552F5
:1029D000E552E76E0E0EE7CFDBFF0501B451B511EE
:1029E00002E1000E08D0B4C5E9FFB5C5EAFFEF501B
:1029F000800B01E0010E00094AE105019A0E406FCB
:102A00000E0E30D00F0E0AC5DBFF100E0BC5DBFF1C
:102A1000110E0CC5DBFFDBCFE6FF010EE66E100EDC
:102A2000DBCFE6FF0F0EDBCFE6FFD1DCE552E55250
:102A3000E552E552E76E120EE7CFDBFF0501B45118
:102A4000B51102E1000E08D0B4C5E9FFB5C5EAFF33
:102A5000EF50800B01E0010E000919E105019B0E0A
:102A6000406F120EDBCF41F5400EE66E400EE66E73
:102A7000050EE66E010EE66EE66E8CEC09F00B6E4E
:102A8000050EE15E0B50F3CFB4F5F4CFB5F5400E73
:102A9000E66E000EE66E050EE66EE66A010EE66E66
:102AA0008CEC09F00B6E050EE15E0B50F3CFB2F526
:102AB000F4CFB3F5130EE15C02E2E16AE552E16E98
:102AC000E552E7CFD9FF1200D9CFE6FFE1CFD9FF1A
:102AD000020EE126DE6ADD6AC282C2B2FED7C350B0
:102AE000DF6E010EC4CFDBFFDECF0BF0DDCF0CF0CD
:102AF0000BC0F3FF0CC0F4FF020EE15C02E2E16ADE
:102B0000E552E16EE552E7CFD9FF1200D9CFE6FFDB
:102B1000E1CFD9FF020EE126DE6ADD6AC282C2B2CF
:102B2000FED7C350DF6E010EC4CFDBFFDECF0BF04C
:102B3000DDCF0CF00BC0F3FF0CC0F4FF020EE15C24
:102B400002E2E16AE552E16EE552E7CFD9FF1200F9
:102B50000501B751B81104E1100EB76F270EB86F19
:102B6000B707000EB85B60A207D0B751B8112EE1CD
:102B70008B748BB413D027D00501805102E18B9464
:102B800022D0800502E18B8409D0020E805D02E133
:102B90008B8419D0040E805D03E18B948C8212002B
:102BA000100E805D06E10501B751B8110FE18B747D
:102BB0000AD0200E805D0AE10501B751B81106E187
:102BC0008B748BA402D08C9212008C8212001200A3
:102BD000120012001200DBEF16F012001E0EE66E5D
:102BE000010EE66E55EC09F0E552E552400EE66E38
:102BF000000EE66E050EE66EE66A010EE66E8CECE1
:102C000009F00B6E050EE15E0B50F3CFB2F5F4CF79
:102C1000B3F5120005019F0520E10501A0051DE1A6
:102C2000A394D6DF60920501A06B0501100EC56F5D
:102C30000E0EC66FC507000EC65BC551C611FAE180
:102C40006084080EC56F070EC66FC507000EC65B11
:102C5000C551C611FAE16094A3841200D9CFE6FFF2
:102C6000E1CFD9FFFD0EDBCF06F0FE0EDBCF07F084
:102C7000050E061801E1075036E0E868061802E183
:102C80007F0E07182FE0030E061801E1075028E019
:102C9000020E061801E1075021E0010E061801E1BD
:102CA00007501AE0740E061801E1075013E0750E84
:102CB000061801E107500CE0730E061801E10750F9
:102CC00005E0720E06180FE107500DD082DF0BD021
:102CD0007EDF09D07DDF07D081DF05D07EDF03D026
:102CE0007ADF01D077DF010EE552E7CFD9FF12007E
:102CF0001201000200000008D8043F000200010297
:102D0000000109022900010100C03209040000028B
:102D100003000000092111010001221C00070581A8
:102D200003400001070501034000010403090434C6
:102D3000034D006900630072006F00630068006962
:102D4000007000200054006500630068006E006F92
:102D5000006C006F0067007900200049006E00637E
:102D6000002E002E03530069006D0070006C00659A
:102D7000002000480049004400200044006500761F
:102D8000006900630065002000440065006D006F6D
:102D9000000600FF0901A101190129401501254084
:102DA000750895408100190129409100C0022D2B22
:052DB0002D2F2D632D05
:0A2DB600040120511F0B010801E089
:102DC0001200245101E01200060E215D1BE1235187
:102DD000230A18E0010A0CE0030A14E10501810549
:102DE00011E10501140E916F2D0E926F090E06D0A0
:102DF0000501910E916F2D0E926F1C0E946F956BC5
:102E0000C00E936F04012051600BE842E842E84293
:102E1000E842E842010801E0120021510B0A26E0D5
:102E2000080A19E0090A11E0080A05E00B0A23E084
:102E3000080A21E012000501C30E916F050E926F82
:102E4000010E946F956BC10E0FD00501800E936F2C
:102E500023C4C3F512000501C40E916F050E926FD5
:102E6000010E946F956B810E936F12000501800E19
:082E7000936F22C4C4F51200A7
:082E78001E0EF66E100EF76E3F
:102E8000000EF86E05010900F550BE6F0900F550FF
:102E9000BF6F03E1BE6701D03DD00900F550B96FA7
:102EA0000900F550BA6F0900F550BB6F0900090021
:102EB000F550E96E0900F550EA6E090009000900B5
:102EC000F550BC6F0900F550BD6F09000900F6CF41
:102ED000C0F5F7CFC1F5F8CFC2F5B9C5F6FFBAC551
:102EE000F7FFBBC5F8FF0501BC5302E1BD5307E086
:102EF0000900F550EE6EBC07F8E2BD07F9D7C0C572
:102F0000F6FFC1C5F7FFC2C5F8FF0501BE07000EF9
:062F1000BF5BBFD71200F9
:0A2F1600D9CFE6FFDACFE6FFE1CFE6
:102F2000D9FFE2CFDAFFAC6AAB6AFD0EDBB0AC884A
:102F3000DBA202D0AC8CAB8CDBB4AC8EDBA602D0B7
:102F4000AB8801D0AB8ADBB8AC84DBBAAB86DBAC38
:102F500002D09D8A01D09D9ADBAE02D09D8801D01F
:102F60009D98FB0EDB50AF6EFC0EDBCF0CF00CC05F
:102F70000BF00C6A0B50B06EAC8AAB8EE552E5CF0D
:082F8000DAFFE7CFD9FF1200D0
:082F8800D9CFE6FFDACFE6FF26
:102F9000E1CFD9FFE2CFDAFFE652F20E0501C71703
:102FA000ABAC03D0C791ABB0C781ABB4C785ABB2F4
:102FB000C787AE50DF6EDF50E552E552E5CFDAFF4E
:062FC000E7CFD9FF12006B
:0A2FC600FE0EE3CFE9FFFF0EE3CF9C
:102FD000EAFFE9CFF3FFEACFF4FFFB0EE35003E192
:102FE000FC0EE35009E0FB0EE30602E2FC0EE306F2
:0A2FF000FD0EE350EE6EF1D7120063
:062FFA00D9CFE6FFDACF9B
:10300000E6FFE1CFD9FFE2CFDAFFACAC04D0AC9061
:103010000501C7B3AC80FD0EDB50AD6EE552E5CFC8
:08302000DAFFE7CFD9FF12002F
:08302800000EF36E00EE00F053
:10303000080E01D81200EA6002D0EE6AFCD7F35005
:08304000E9601200EE6AFCD702
:0830480013EE00F023EE00F08E
:10305000F86A0A9C3CEC17F003EC08F044EC12F020
:04306000FBD7120088
:0B3064003033320000000000010000CB
:020000040030CA
:0100000021DE
:0100010008F6
:010002001FDE
:010003003EBE
:010005009169
:010006008178
:00000001FF
